:400000000080002011000000750200007502000008B5044B1A6803F53F5302331A6000F02BF900BFFA46004010B5054C237833B9044B13B10448AFF300800123237010BD65
:400040004881FF1F00000000CC580000084B10B51BB108480849AFF300800848036803B910BD074B002BFBD0BDE81040184700BF00000000CC5800004C81FF1F0881FF1F79
:400080000000000008B501F049F801F017F8044800F094FF034832210A4601F0E5F908BD30610000D058000008B562B600F0A0FAFFF7E8FFFEE700BF10B50446002000F048
:4000C000A5FA204600F056FA00F048FA10F0010FFAD010BD10B50446012000F097FA204600F048FA00F03AFA10F0010FFAD010BD70B506460D46012000F088FA002408E06B
:40010000305D00F037FA00F029FA10F0010FFAD00134AC42F4DB70BDFEE700BFFEE700BF08B50120FFF7C8FF0A2000F09BFA3620FFF7C2FF8820FFF7CDFF3A20FFF7BCFFF1
:400140005520FFF7C7FF1120FFF7B6FF2920FFF7B3FFFA2000F086FA08BD00BF024A136801331360704700BF0CA3FF1F10B500F01DFB002409E0204600F02EFB20B920462A
:40018000064900F021FB02E00134042CF3D9042C02D9002000F064FA10BD00BF5D01000008B5FFF7E3FF08BD08B504484FF4005100F024FC024800F04BFF08BD6481FF1F1B
:4001C0003C59000008B5FFF7ABFF08BD30B5A1B000241B941C941D941E941F9401A82146682205F06BFB154815492246234601F09BF805462046F0214FF4A07202F070FFFC
:400200002046F0214FF4A07202F082FF02231D9328461BA901F0D9FC0A4B01930A4B02930A4B04930A4B06930A4B0893284601A9094A0A4B01F0E7FC21B030BDE46D000072
:400240008C6D0000B9000000D5000000F1000000190100001D01000079260000D9220000012904D108B5FFF7ADFF002008BD4FF0FF307047FEE700BF08B5104E104D16E0BA
:4002800029686B68AC68002204E051F8040B43F8040B0432A242F8D1E868002203E0002143F8041B04328242F9D11035013E002EE6D105F0B7FAFFF7F7FEFEE701000000C7
:4002C0004C73000008B5124A124B1A60124A136843F40073136000230AE0032B03D80F4A52F8231000E00E490E4A42F8231001332F2BF2D90C4B1A780C4B1A70094A0C4BA6
:400300001A6000F0ADF800220A4B1A6008BD00BF0004FA050CED00E014ED00E000000000750200000080FF1FBC7600400481FF1F08ED00E00081FF1FFEE700BFF0B4002274
:40034000174611E050F82760F3B226F0FF0608E001EB420511F812406D78A5550132013BDBB2002BF4D10137092FEBD9F0BC7047064B1B78DBB203F00701054A11701B0968
:40038000013213704422034B1A707047CF0100496E5800407658004008B50A46002105F08DFA08BD38B50323244A1380182102321170022102F27E22117008224FF04021F2
:4003C0000A7001F500710B701D4B1B78DBB201F2A1410B701B4B1A8041F25122023B1A80002419250CE0184B1B7803F0010343EA440404F003044FF4F07000F021F9013DB6
:400400000DB1032CEFD115B90320FFF795FF0F4B4FF480721A8007221A7000220C490A704820023108701A700222033B1A70094A137843F00103137038BD00BF80400040F2
:400440000801004922420040254200400440004006400040A243004008B505F009FA08BD70B572B6254A137843F00403137000240CE0234963001A1952000A4423445B00BE
:40048000C8589188FFF788FF0134E4B2082CF0D94FF090401B49FFF751FF1B4A137843F0020313701032137843F002031370174C237843F040032370A2F58632513A137866
:4004C00043F010031370124812490822FFF7C4FF114A137843F008031370104E01253570FFF760FF812333700D4B1D70FFF740FF0C4821460E22FFF7AFFF70BDE8460040EB
:40050000E05800002800004803500140A04300405251004090020048224300400048004004000840B043004008B500F091F80A4A137843F0200313700232137843F0100300
:400540001370013A137843F01003137000F084F800F068F808BD00BF98650040014B1878704700BF6A650040014B1878704700BF69650040034B1B7813F0040FFAD0024B1D
:40058000187070476A6500404A65004008B501E00A4B1B780A4B1B7813F0200FF8D100F057F8084B1A7842F001021A701A7802F0FE021A7000F050F808BD00BF5A650040E9
:4005C000696500409A65004008B50F22064B1A70FFF7DCFFFFF7C2FFFFF7C6FF0023034A1370013A137008BD886500408A65004008B5054B1B7823B9FFF7E6FF0122024B09
:400600001A70FFF791FF08BD64A1FF1F044A137803F0FB03800000F0040018431070704750510040054A137843F0010313701032137843F001031370704700BFA24300405B
:400640000230800803D000BF01380046FCD17047EFF3108072B6704780F31088704700BF01BE704710B5044605E0084B1868FFF7E7FFA4F50044B4F5004FF6D8034B58688F
:4006800000FB04F0FFF7DCFF10BD00BF0C81FF1F70B504460E46074B1D680F2802D90020FFF7DEFF04F00F0455F8240045F8246070BD00BF08ED00E0024A136843F00203AB
:4006C0001360704710E000E008B5FFF7F5FF034A136843F00103136008BD00BF10E000E020F07F40014B1860704700BF14E000E0012805D1054A136843F004031360704789
:40070000024A136823F004031360704710E000E0024B1868C0F30040704700BF10E000E010B5FFF7F5FF01280BD107E0054B03EB84035B6803B19847013400E00024042CB9
:40074000F4D910BD68A1FF1F0022014B1A60704718E000E008B5002305E00F4A02EB8302002151600133042BF7D90F200B49FFF78FFF0120FFF7BCFF094BDB680948A0FB50
:4007800003308009FFF7ACFFFFF7DEFF4FF40042054B1A6008BD00BF68A1FF1F210700000C81FF1FD34D621000E100E008B5054B9B6923B9FFF7CEFF0122024B9A61FFF7D8
:4007C00083FF08BD68A1FF1F024B03EB800358685960704768A1FF1F024B03EB80004068704700BF68A1FF1F074B10B55A685C6A01325A605A6B02EBC0014C60002102F8B0
:400800003010586210BD00BF10A3FF1F10B50E4944680F2301EBC302126C94420A4A03D213F1FF33F6D210BD0F2B0CD81168091B11608168C06801B1486008B1016010BDF0
:4008400002EBC303596410BD10A3FF1FF8B5274E0546F368B26B013B0818134498420C4605D84B591BB943681D44FFF7CFFFB36B9C420BD954F8043C5B42E718E3582BB95A
:400880007B6838461D443C46FFF7C0FF0F2306EBC302126C954203D213F1FF33F7D223E00F2B21D8083306EBC30251686019002284E82400A160246140F8045C04F1080008
:4008C00001B1486006EBC303A160E260586033680649EA1896F8293032602BB9CB689B1A8A68934288BF8B602846F8BD10A3FF1F2DE9F74F234F8346B846FE68BC6B013E6D
:40090000264494E82800A3BB61198E4231D954F805A0BAF1000F2CD07B6B13F83A30012B27D1D8F82C302046D1F8049000930191FFF76CFF0199D8F83420086802EBC0027F
:40094000546020464A4604F09EFF009B04EB09019A4508BFD8F83430284604BF5B1BC8F83430FFF773FFBBF1000F01D0584505D24D462C44A642C4D8012000E0002003B040
:40098000BDE8F08F10A3FF1F28B1034BDA6B026002B15060D863704710A3FF1F034B5B6B03EBC00040680830704700BF10A3FF1F054BDA690132DA615A6B12F83030013301
:4009C00002F83030FFF7EABF10A3FF1F30B50368094953F8085C4C6B14F83530012B03D9CA690AB1013ACA61013B04F8353000230360184630BD00BF10A3FF1F024B21F0FC
:400A0000030118605960704784A1FF1F10B5044660B1074B5B6B03EBC00359684868FFF715FF2046BDE81040FFF7DEBE10BD00BF10A3FF1F2DE9F041224CE36A3BB9224B76
:400A40009D685B680835B3FBF5F5023503E023691D1D05EBD305E80000F0C2F8804660B3616B226901EBC0035E68184B08361B68D2003046E76A9847226966631346C4F8F5
:400A80002C80691E8B4205D2013306EBC30040F8043CF7E706EBC3064FF00008C6F80480636862629B1A2B446360256138463FB1FFF7ACFF4046BDE8F0810120BDE8F08100
:400AC000BDE8F08110A3FF1F84A1FF1F3C81FF1F70B5184A92F8283053BB012382F82830154B1021D960996811B95968890899605A2111621026002102EBC10006FA01F5BB
:400B0000013110290B4C0564F6D158681968A0F114030B440125022222616363A163E0605D6065626560FFF791FEFFF783FF256370BD00BF10A3FF1F84A1FF1F2DE9F0419F
:400B40000746264E0337FFF7C3FF27F00307306C0437F26B874238BF0746144634B154F8043C9F4223682CD01C46F7E7F368B26B02EB030858F8045CC5EB08052B6833B199
:400B80002046FFF7B5FE58F8045CC5EB08052B680BBB6B689F421EDC28461C1DFFF736FEF3686868DB1BF3607369E41B3B44C01B2C44736102D02946FFF748FE44F8047CBB
:400BC00009E00BB161685960616801B10B60A24201D12368F3632046BDE8F08110A3FF1F2DE9F8430446394EFFF772FF356C3368AC4224BF033424F003050C35AB42334C6E
:400C00003ED3236B62689A420FD97368776A013B7360736B4FEAC70803EB080252687262012203F8372057B92AE0013B2363FFF701FF236B013323630028E6D020E00F23B1
:400C400006EBC302126C95420CD213F1FF33F7D208E094682CB16268954214D9A268002AF7D101330F2B03D806EBC302526CF6E72846FFF73DFE0028E1D03846FFF7B4FD0A
:400C80000020BDE8F883D4F80490336CC5EB09020C339A4238BF4D462046FFF7B7FD736B611998444D454FF00003C8F8044027606560A360246141F8045C03DAC5EB090076
:400CC000FFF7C4FD3846BDE8F88300BF10A3FF1F08B1FFF785BF704773B50646FFF7F8FF054660B1FFF764FE064B02AC44F8040D1B683246002198472046FFF767FE2846DA
:400D000002B070BD4081FF1F4D4B2DE9F04F1A688BB0D169CC69A389984208DBE589854205D32568C31A06954FF0FF3613E0A368002B7CD01D88A84279DB5E88864276D31E
:400D40005B68401B666880B203EB8005069633F92030B5F90260581C099368D091F818B0A17CB2F92A900BFB01F34846B2F92270B2F92480079394F810A001F0C7FC079B5F
:400D8000089018462E4D099B2968CA69896B0591069900FB03100490A37C4146039301230293D37E38460193937E524600935B4601F022FE731C1AD049F0020001F0A6FC02
:400DC0002A680699D369926B38460592079A02FB06160496A27C4146039201220292DA7E01929B7E524600935B4601F005FE2B68DB695A7E1B7E9A4215D9B9F1020F12D0BC
:400E000089F0040001F082FC0D4B1B68D869437E827E017EC07E434400FB01810AFB0272384601F0D1FC9DF8200001F06FFC044B617C1A68538C0B4453840BB0BDE8F08FD0
:400E40001C81FF1F044B1B68DB69DB6909B11A7C0A60587C704700BF1C81FF1F02230B807047C3699A89914202DBDA898A420FD2986880B1038899420CD342888A4209D340
:400E8000C91A436833F82100C043C0F3C03070470120704700207047C3B2CAB29A1A92B210B514B2002CBCBF524214B204FB04F2C0F30723C1F307241B1B9BB21CB2090CC0
:400EC000002CC1EB1041B8BF5B4289B208B2B8BF1CB204FB04230028BCBF494208B280B200FB003010BD10B538B309B30AB3B2F90040B1F90030A342A8BF2346B2F90240B3
:400F00000380B1F90230A342A8BF2346B2F904404380B1F90430B2F90620A342B8BF23468380B1F906309342B8BF1346C38010BD11460B6803604B68436010BD68B10388EB
:400F400089B20B440380838892B219444388818013444380C3881A44C2807047024B1B6858849984002070471C81FF1FB0F90220B1F906309A4214DCB1F90220B0F90630B3
:400F80009A420EDCB0F90020B1F904309A4208DCB0F90400B1F900308342CCBF0020012070470020704708B502F062F802F0C8F8BDE8084002F018BE01F0DABE034B1B6894
:400FC000DA6900B1D8611046704700BF1C81FF1F094B10B41880094B0A461980084B1B68597C084B53F82130D9680C6A01461846234610BC184700BFF8A3FF1FE8A3FF1FA5
:401000001C81FF1F20A4FF1F70B50B4D00240B4E45F8044B3368702221462846984733680422214606489847064B1D60064B1C70064B1C6070BD00BF94A1FF1F4081FF1FC1
:4010400020A4FF1F1C81FF1F08A4FF1FE4A3FF1F014BD860704700BF1C81FF1F2DE9F3410446042016461F460D4601F04FFB124B80461B686846DA6C1B6D14441D44164473
:401080001F44ADF80040ADF80460ADF80250ADF8067002F029FD28B9404601F037FB02B0BDE8F0813B4632462946204601F08CFB02F058FCEFE700BF1C81FF1F002110B5A1
:4010C0000846FFF74BFFBDE8104043F6FF7302491A460846FFF7C2BF01C0FFFF024BDA6FD8674260704700BF94A1FF1F10B5094C23686BB901232360FFF756F8FFF766F84B
:401100002046BDE81040044B40F8803FFFF7E6BF10BD00BF94A1FF1F0910000070B5FFF7E5FF2F4B2E222F4C2F4D1A70FFF738F82E4B04F10C0123672B681A1DDA6303F10B
:401140000802A2615A7C9B631B64294B53F82200C3681B6B9847274B6366EB6823622B680833A36101232377E37702F037FE032384F86830204BE064606F6363A36301F005
:40118000F7FDA86801F0FAFD1C4A1D4B1A6001F053FD054601F002FF064601F005FF06B140B901F0EFFE064601F0EFFE0146304601F0EEFE00210846FFF70AFF02F066FD27
:4011C000A36F43B1A36F33B11B6803B19847A36F5B68A367F6E70B4B01221A70284670BDD9A3FF1F94A1FF1F1C81FF1F686D000020A4FF1F606D0000785634FF7C6D00006D
:4012000018A4FF1F00A4FF1F002809DC054B53F8200020B1C3681B681BB10068F9E770470020704720A4FF1FFFF7AEBBF8B51C1E06460D46174601DD0020F8BD1C20FFF720
:401240007DFC0028F8D00DB1056109E0084B53F8241029B10B680BB11946FBE70B6903610023836084618782C66003604360F8BD20A4FF1F81690A4A52F82130984203682F
:4012800004D142F821300BB100225A60426802B11360036803B15A60002303604360704720A4FF1F30B508B9012030BD8469002CFADC1B4B1A789442A4BF01221A70194AE7
:4012C00052F8243015461BB942F82400184630BD5A680AB11346FBE7C2681268D9680968914203DD1B68002BF8D1DDE709D1818A012906D1196821B10B46C96809688A4284
:40130000F8DD5A6812B11060426001E045F824005860984208BF00230360002030BD00BFD1A3FF1F20A4FF1F38B51D46FFF77EFF044648B1FFF7B6FFE3681B6823B9034B37
:4013400016351B6843F82540204638BD1C81FF1F2DE9F04F054685B000287FD002F0ACFE404C07462368A146B3F9228002F08CFE226886B2938C9B1B93842B78002B61D03F
:4013800047F6FF71284602F0FFFE01468246284602F024FF2268938D03F00303012B04D0022B04D190FBF3F302E0034600E00023518C1FFA80FBCB1A9BB219B25184ADF865
:4013C0000810B2F924200BF1FF310B44ADF80C30ADF80A20BBB2013A1A44ADF80E20514602AA2846019302F029FF2268BDF80A1028469184514600F05BF82A5C05EB000E49
:401400000A2A019B01D00D2A12D12268918D01F00301013901298ABF118CA2F8228051849EF800100A290AD1918C0B44938406E0BDF80800D9F800308344A3F822B09EF854
:40144000003043B923689A8C16449A8D9E8422F003029A8502E00EF101058EE705B0BDE8F08F00BF1C81FF1F024B1B6859849A84FFF76EBF1C81FF1F024B1A6802B918605C
:4014800000F032B824A2FF1FF8B5084E0468336805461B6820469847336807465B6820469847204428603846F8BD00BF18A4FF1FF8B506460D46064F00243DB13B683046DD
:4014C0005B689847013D06440444F6E72046F8BD18A4FF1F0078704701207047012070470170012070470000024B1B6803B11847704700BF84A2FF1F074A00F01F01C0F3CF
:40150000C423D35C525CC0F3451003EB0243034A105C03EB002070476C7100002C710000074AC1B2C0F30743D35C525CC0F3072003EBC223034A105C03EB4010704700BFFC
:401540002C6F00002C6E00004FF6FF7070470000F0B5DFF854E00646DEF800E00D4614461F46BEF1000F03D0F446BDE8F04060470B490C4856F8042B013CC2F307435FFA06
:4015800082FECB5C11F80EE0C2F30722825C03EBCE2303EB42132B803D44EBD1F0BD00BF2C6F00002C6E00008CA2FF1FF0B5154E864676680F4614461D461EB1B446BDE8A8
:4015C000F0406047501E02F1804103FB00E0013907EB81010C4E0D4F0288013C02F01F0316F803E04FEAD223F35CC2F34512BA5C03EB0E4303EB022341F80439A0EB0500ED
:40160000EAD1F0BD8CA2FF1F6C7100002C710000104670474068801A01387047084670470068401A0138704710B48468D4F8F840A44610BC60478368D3F8F4301847F7B590
:40164000164604460D468768FFF7F5FF0190019ABB6A2946534020463246FFF7E5FF03B0F0BD13B584680092D4F8F040A04702B010BD13B584680093D4F8F0400B46A0470A
:4016800002B010BD10B48468D4F8F040A44610BC604730B48468D4F8EC40A44630BC60477047000073B5079E84680C4D76B1286888B906980090D4F8A8602046B047D4F871
:4016C000A8302B60064BC4F8A83004E02B6813B1C4F8A8302E6002B070BD00BF94A2FF1FA1160000026CD0F8DC3090691847026CD0F8E030906918472DE9F34791468A466D
:4017000098460A9C85680B9F00942846D5F8A860B0473946C9EB0404CAEB0806621C286C06FB0222D5F8E430806902B0BDE8F04718472DE9F34791468A4698460A9C85686C
:401740000B9F00942846D5F8A860B0473946C9EB0404CAEB0806621C286C06FB0222D5F8E830806902B0BDE8F04718470139172928D8DFE801F01427272727272727270E75
:40178000101219290C272727272727231E250F4870470F4870470F4870470F48704703689B68D3F80401704703689B68D3F8FC00704703689B68D3F8000170470748704759
:4017C0000748704700207047064870479F1B00008B1B0000771B00001D1B0000811A0000A5160000B51B0000013980680D2923D8DFE801F0090B0D0F2222221125070713BF
:40180000181D01207047006870474068704780687047C0687047806B704788B1406B00F00100704760B1406BC0F34000704738B1406BC0F3800070474FF0FF307047002048
:401840007047836801290CBF586C00207047826800230B804B801368013B8B805368013BCB807047F0B5104C91B06D46264607460FCE0FC596E80F00203485E80F000FCC81
:4018800008AD0FC594E80F0085E80F007B6B10AA02EB830353F8402C53F8203CC7F80821C7F80C3111B0F0BDA46D000007B580698DE806006A460321FEF7D2FC03B05DF805
:4018C00004FB0846704708467047084670471046704710467047104670474068801A013870470068401A013870470068401A013870474068801A013870474068801A013870
:4019000070470068401A013870472DE9F34184689846E38C0E469B0717462ED5D4F80831204698470546D4F80C313A46314620469847A36922699D42D4BF00230123954264
:40194000B8BF43F00103626906469042B8BF43F0010313B9E36998420ADD62682368013A00920022D4F8A870013B11462046B847D4F8AC303246294601E0D4F8AC302046AB
:40198000984741462046D4F8A43002B0BDE8F0411847F7B584680E46E38C17469B0743D5D4F8083120469847D4F80C31314605463A4620469847D4F8983006461BB10022BA
:4019C000012120469847A36922699D42D4BF002301239542B8BF43F0010362699642B8BF43F0010313B9E3699E420ADD62682368013A00920022D4F8A870013B114620465A
:401A0000B8472946D4F8AC30324620469847D4F8A03020469847D4F8983005467BB101220021204698470AE0D4F8AC30204698472046D4F8A03003B0BDE8F0401847284630
:401A400003B0F0BD38B5856804469DB94FF4BE70FFF774F8084B4FF4BE721B68A06029469847A3680222DA8401221A62034A1C64C3F8102138BD00BF4081FF1F651800002D
:401A800070B506460D461446FFF7DCFFB368002B3BD0262D02D0272D16D070BD9A6B102A02D0122A08D070BD184AC3F8DC40C3F8B820C3F8B42070BD154AC3F8E040C3F88B
:401AC000BC20C3F8C02070BD9A6B102A02D0122A0ED070BD3CB10F4AC3F8E440C3F8CC20C3F8C82070BDC3F8CC40C3F8C84070BD3CB1094AC3F8E840C3F8D020C3F8D4201A
:401B000070BDC3F8D040C3F8D44070BDE5160000EF160000F91600003317000070B50646FFF790FF4FF4FA70B568FFF707F8A866B0FA80F4A86B2B680730C0105843FEF73A
:401B4000FDFF002200284FF00101E866B0694FEA541408BF0124FEF783FBD5F810310443284698472846D5F8B0309847002CD4BF0020012070BD70B506460D461446FFF79A
:401B800061FFB3681D605C6070BD70B506460D461446FFF757FFB3689D60DC6070BD10B50446FFF74FFFA06900220621BDE81040FEF756BB10B50446FFF744FFA069002246
:401BC0000521BDE81040FEF74BBB38B50C460546FFF738FF2268AB68DA6262681A63A2685A63520707D51A68596883E806009A68D968DA609960A2899A84226912B122EA2F
:401C0000E2721A6238BD2DE9F041044688461E461746FFF717FFA5686822414605F58A7003F026FE2046B8472046B04723699B689847A862BDE8F0810B0A80F8713080F894
:401C40007210D0F820310221713018472DE9F04115460446806E0E460021A5B1034636F8022B0131170AFA2903F8027B427007D1D4F820314FF4FA71A06E9847A36E0021FB
:401C8000013D1846E9E731B1D4F82031A06E4900BDE8F0411847BDE8F08108B5D0F8B830984708BD89B2FFF7C7BF00002DE9F04F3E4E82468568306885B0007C884610F0A2
:401CC000010F14469946A3EB01003DD043000393471C0E9B9C4266DCD5F8CCB0EE6EBBF1000F01D1C34607E08DE850004B46224641465046D8470DE0CB450ADC5946D5F88F
:401D0000F4302246504698470BF1010B26F8020BF2E7EE6E039AB31E1644B34205D0A96A33F8022F4A401A80F7E7009422464B4641462846D5F8A860B0473A46E96E2846A4
:401D4000FFF784FF0134C4E70E9FBC1A671C00FB07770E980090D5F8A8402846A0473368AE6EDB6B1C680123C4F3072906EB030AE4B2C7B1B846F92F28BF4FF0F9084FEA2D
:401D800048013BB9D5F8203150469847C8EB07070023EEE7334672189342F3D083F8019003F8024FF8E705B0BDE8F08F1C81FF1F2DE9F04F8FB00393836805900993199B3A
:401DC0000691082B08920CD8199A4FF48B73D340DB0706D5984B1B681B7C03F00303022B10D0069B1C9A18989918089A039B0244013A0092099ACB18D2F8A840013B089AB3
:401E00000998A047039B1C9A013B0D93069B089F13440493049A0D9B13440C93089B189AFB1A9A4240F35382199B013B0F2B00F24882DFE813F01000C100460248014602D0
:401E400046024602D80146024602460246024602460246024102059B9C681D9B5B680B93754B1B681B7C03F00303022B22D0032B76D0012B74D01D9B039E1C9DDDF86CB028
:401E8000B3F80090BDF82CA04FF080089BF8002048FA05F31A4214BF5146494601352046FFF7CAFE082D04BF0BF1010B0025013EECD106E21B9B00250A932B46DDF810B07C
:401EC000D4F86CA0DDF87080CDF81CB00A9A92F80090802242FA08F219EA02090DD01BB9D4F86CA0DDF81CB0BDF82C300135AAF800300AF1020A012313E0012B10D1079B00
:401F00000097013B3A4659462046D4F8A860B0472A46E16E2046FFF799FE4D464B4600E04B46079A08F101080132B8F1080F079208BF0A9A039904BF01320A92049A08BF0A
:401F40004FF000080A4407999142BFD1002D00F0B8810097D4F8A8600C9B3A465946A5E1039B049A1C9DDDF86C80079303EB020A4FF0800B079B98F80020C3EB0A094BFA50
:401F800005F31A420DD0D4F8F4303A46494605989847A36A3A46434049460598D4F8F860B0470135079B082D04BF08F101080025013B0793DED184E1059B9C681D9B002BB6
:401FC00000F07F811B9B93F800B01B4B1B681B7C13F003030FD0022B40F07381049B00260A931B9BD4F86CA0DDF870900B93DDF81080324645E01C9D039EDDF86C904FF078
:40200000C008C5F103035A00C2F1060348FA03F303EA0B03D3401D9A013532F823102046FFF70AFE042D02BF99F801B0002509F10109013EE5D144E11C81FF1F1AB9D4F841
:402040006CA0CDF82880079A1D9B013653F822300AF1020A2AF8023C012209F10109B9F1040F08F1010806D10B9B4FF0000993F801B001330B93049B03990B44984500F043
:40208000A680C9F103056D00C5F10603C02141FA03F303EA0B03EB400793CFD1012A10D1009708F1FF333A460A992046D4F8A850A8473246E16E2046FFF7C8FD079E32468B
:4020C000CBE7079AC9E7059B9C681D9B002B00F0F8801B9B93F800B07E4B1B681B7C13F003030FD0022B40F0EC80049B00260A931B9BD4F86CA0DDF870900B93DDF81080A1
:40210000324642E01C9D039EDDF86C904FF0F008C5F101039A00C2F1040348FA03F303EA0B03D3401D9A013532F823102046FFF783FD022D02BF99F801B0002509F10109CE
:40214000013EE5D1BDE01AB9D4F86CA0CDF82880079A1D9B013653F822300AF1020A2AF8023C012209F10109B9F1020F08F1010806D10B9B4FF0000993F801B001330B936A
:40218000039B04990B44984521D0C9F10105AD00C5F10403F02141FA03F303EA0B03EB400793D0D1012A10D1009708F1FF333A460A992046D4F8A850A8473246E16E2046C3
:4021C000FFF744FD079E3246CCE7079ACAE7002E77D000973A46D4F8A8500C9B0A992046A847324665E0059B9C681D9B002B68D0384B1B681B7C13F003030FD0022B60D138
:40220000DDF818A0039A00255244D4F86C80DDF86CB0CDF81CA02B460A9224E01B9D039B1B9A5B1B1344002B4BDD15F8013B1D9A204632F82310FFF7FFFCF0E71BB9D4F828
:402240006C80DDF81CA01D9B013553F8293008F1020828F8023C0123079A0132079207990A9A914219D01BF8019BB9F1000FE5D1012B10D1079B0097013B3A465146204640
:40228000D4F8A860B0472A46E16E2046FFF7DEFC4D464B46E0E74B46DEE70D9B069A13447DB13A4651460097D4F8A8602046B0472A46E16E204602E0039A1B990998FFF782
:4022C000C5FC1B9B1A9A013713441B93A6E50FB0BDE8F08F1C81FF1F10B50446FFF7B2FBA468104B0821C4F8EC300F4B2046C4F8F0300E4BC4F8F4300D4BC4F8F8300D4BCA
:40230000C4F8A0300C4BC4F8A430D4F8CC30C4F80431D4F8943098471023A363074B636410BD00BFB11D0000AD1C0000931900000B1900009B1C0000A51C0000B471000020
:402340002DE9F04104460E461546D0F88C302A219847E16AD4F8903031442046C1F30F219847E16AB7B23944D4F890302046C9B29847E16AD4F8903031442046C1F30F21E7
:402380009847E16AD4F8903039442046C9B29847D4F88C3020462B219847216BD4F8903029442046C1F30F219847216BAEB23144D4F890302046C9B29847216BD4F890309E
:4023C00029442046C1F30F219847216BD4F8903031442046C9B29847D4F88C302046BDE8F0412C2118472DE9F041044688461F461646D0F88C302A21069D9847E16AD4F802
:40240000903041442046C1F30F219847E16AD4F8903041442046C9B29847E16AD4F8903039442046C1F30F219847E16AD4F8903039442046C9B29847D4F88C3020462B2147
:402440009847216BD4F8903031442046C1F30F219847216BD4F8903031442046C9B29847216BD4F8903029442046C1F30F219847216BD4F8903029442046C9B29847D4F8BB
:402480008C302046BDE8F0412C21184713B504466B460D4A1068516803C3D4F88C302046362198472046636B02AAA18C134413F8083C21F0E0011943D4F8903089B202B0C9
:4024C000BDE81040184700BF186E000013B50446D0F814312E209847216AD4F83031684603319847236A0DEB03021DF803305078DB088008DB0243EA4013907843EAD00017
:4025000002B010BD1FB50446D0F834312E209847216AD4F85031684602319847226A0DEB42035B88C3F3C4005B1103F4FC6303433DF81200000200F47840184304B010BD0D
:4025400070B505460C46D0F81431080A9847D5F81431E0B2BDE870401847D0F8343108461847D0F81831C8B21847D0F83831084618470000082902D0102905D07047064B88
:40258000C0F88C30054B03E0054BC0F88C30054BC0F89030704700BF41250000632500005B2500006B250000F0B585B00A9F8568BC1A581A0097013400FB0444D5F8A870C8
:4025C00028460B9EB847D5F814312E209847D5F83031296A02A89847D5F83031032102A898479DF80930013C4FEA93029DF808304FEAD3034FEAC32343EA42139DF80A204C
:4026000043EAD20326F8023BE6D105B0F0BDF0B587B00C9F8568BC1A581A0097013400FB0444D5F8A87028460D9EB847D5F834312E209847D5F85031296A02A89847D5F8C6
:402640005031022102A89847BDF80A30013CC3F3C4024FEA631303F4FC6343EA0203BDF808204FEA022222F4FF6243EA020326F8023BE4D107B0F0BD10B50446FFF7E2F917
:40268000A368114A0021C3F8AC20104AC3F8BC10C3F8A8200E4AC3F8D010C3F8B0200D4AC3F8B8200C4A10685268C3F8B400C3F8C820DA8C094822F00302DA84084AC3F86D
:4026C000CC00C3F8942010BD41230000E72300008D240000CD2400002C81FF1FA92500007525000070B5084B1B681A7C82EA0001490705D59C6BD96B25680E6826600D6026
:402700001874104670BD00BF1C81FF1F014B1B689B6818473481FF1F0A46154B30B41B680446B3F90A10914220DCB3F90E108A421CDCB3F90810814218DCB3F90C1088427B
:4027400014DC197C587C11F0010F0A4951F8200004D0C368214630BCDB691847C168DB6B8D691B682146AC4630BC604730BC70471C81FF1F20A4FF1F114B30B41C680D4613
:40278000B4F90A308B4219DCB4F90E30994215DCB4F90810B4F90C308142B8BF01469342A8BF1346994209DC607C064A52F82000C26894682A46A44630BC604730BC7047E9
:4027C0001C81FF1F20A4FF1F73B5134C2468B4F90850B4F90C608542B8BF05469642A8BF1646AE4215DBB4F90A208A42B8BF0A46B4F90E108B42A8BF0B469A4209DC607CB0
:40280000064951F82000C16800930C6933462946A04702B070BD00BF1C81FF1F20A4FF1F2DE9F04F8FB0189DDFF8C8E10295199DDEF800E008951B9D079003950C461746A6
:402840000193DDF868A01C9EDDF874B01E9DBEF1000F02D0DEF8004054E0029B089A1343012B54D1614B1868B0F90A20531A002B0ADD0199C3EB010EBEF1000F40F3B280C1
:40288000039901FB036602E00A46DDF804E0019B1C44B0F90E30013CE41A002C05DDC4EB0E0EBEF1000F40F39D80079BB0F90C103B44013B5B1A002BC8BFFF1A079B591BAF
:4028C000B0F90830994209DA5B1A1D44FF1A23F0070306EBE506194405F00705002F40F38180407C424B039C53F82000C368CDF874B01C951B961A94CDF864A0CDF860E04B
:402900005C683B46A4460FB0BDE8F04F60477546CAF108030B93029BDFF8D090013BCDF814E00D93059B019A93425BDA089BE3180993013B0A93D9F800300A99B3F90A20C4
:402940008A4248DCB3F90E309C4244DC079B4FF0000806960093CDF81080049BBB423ADAB8F1000F05D1069B4FF008081D78013306930B9BCAEB080845FA03F313F0FF01DF
:4029800005FA0AF5EDB204D1D9F80020127C920719D4D9F80020D26B10680C90BBF1000F02D05BF8213000E0DBB2136000990D9A0A9B0A4400982146FFF706FFD9F800301F
:4029C0000C9ADB6B1A60049B029A01330493009B13440093C1E7059B099C01330593039B1E449FE70FB0BDE8F08F00BF1C81FF1F20A4FF1FDCA3FF1F2DE9F04F8FB0189C83
:402A0000DFF814E20294199C1D9E0894DEF800E01B9C054603940091904601931A9F1C9C0496BEF1000F02D0DEF800407AE0029B089A1343012B7AD1754B01991868009B51
:402A4000B0F90A20D31A002B07DDC91A002940F3DB80039E06FB034400E0009A9DE848001E44B0F90E30013EF61A002E03DD891B002940F3C98005EB0803B0F90C60013B82
:402A80009B1BB0F90860002BC8BFC3EB0808B54231DA731B082FC3EB080827D00DDC022F14D0042F1AD0012F26D123F0070604EBE304354403F007031EE0182F18D0202F39
:402AC00016D0102F18D104EB430413E023F0030604EBA304354403F003030DE023F0010604EB6304354403F0010305E01C4401E004EB830435460023B8F1000F40F3848085
:402B0000467C444850F82600049ED0F80CE01C93039B18911A93294643461D961B941997DEF80440A4460FB0BDE8F04F6047F346C7F108030B93029BDFF8D4A0013BCDF805
:402B400018E00D93069B019A93425DDA009A089B13440993013B0A93DAF800300A99B3F90A208A4248DCB3F90E30009A9A4243DC2E464FF000090794CDF81490059B43459A
:402B80003ADAB9F1000F06D1079B4FF0080993F800B0013307930B9B0BFA07F24BFA03F313F0FF015FFA82FBC7EB090904D1DAF80020127C920717D4DAF80020D26B10687A
:402BC0000C90049810B150F8213000E0DBB213600D9A0A9B324400993046FFF7F5FDDAF800300C9ADB6B1A60059B029A01330593334613441E46C1E7069B01330693039B52
:402C00001C44099B00939DE70FB0BDE8F08F00BF1C81FF1F20A4FF1FDCA3FF1F044B1968044B4A7C083153F82200C3681B6B18471C81FF1F20A4FF1F07B5FFF7EFFF00F0D5
:402C4000B1F8002839D1FEF7DFFA019038B900F0FFF81B4B1A681B4B9A420CD12AE0C3680C215B6A01A89847034628B3019898470028ECD021E00020FEF7C6FA0190C8B12C
:402C8000002001F02FFB0420FFF740FD43F6FF7300211A460846FFF797FD0020FFF736FD019B0E21DB6801A85B6A9847034608B101989847002000E0012003B05DF804FB38
:402CC00008A2FF1F785634FF044B1B685A7C044B53F822301B691B68184700BF1C81FF1F20A4FF1F044B1B685A7C044B53F822301B695B68184700BF1C81FF1F20A4FF1F1F
:402D0000044B1B681A7C52074CBF9B6BDB6B1860704700BF1C81FF1F08B5064B1B68196B814206D01863FFF7CFFFBDE80840FFF7E7BF08BD1C81FF1F044B1B681A7C52071B
:402D40004CBFDB6B9B6B1860704700BF1C81FF1F08B5064B1B68596B814206D05863FFF7B3FFBDE80840FFF7E7BF08BD1C81FF1F014B1B685B6818473481FF1F014B1B6866
:402D80001B6818473481FF1F10B5044C2068FDF7FBFD034A00232360136010BD2CA4FF1FB0A2FF1F38B50A4D2C6864B9094B18688000FDF7C3FE286038B10748074B40F8FC
:402DC000043FFEF78BF9002038BD012038BD00BF2CA4FF1F3881FF1FB0A2FF1F892D00002DE9F843044618B387681FB3144D286820B32268B2F5807F1FDC124B00261B6826
:402E00009A42A8BF1A469046464509DA57F82600D5F80090FFF758FF49F826000136F3E7094B1B680BB1204698472868BDE8F883BDE8F8833846BDE8F8830020BDE8F8838E
:402E40002CA4FF1F3881FF1FB0A2FF1FFFF7C8BF2DE9F74F00F003F91C4E8046B146DFF874A0002444452DDA2046FEF7CDF938B33368204693F811B05C7400F047F808280A
:402E800004DDD9F8003083F811B019E05AF824301A690F4B9A42F4D0204600F03AF8034600259D42EDDAEFB238460193FFF71AFF39460246204600F0FBF80135019BF0E7C1
:402EC0000134CFE703B0BDE8F08F00BF1C81FF1F9C71000020A4FF1F10B50C46FEF794F928B1C3682146BDE810409B6A184710BD002801DCFFF7F0BF00207047014608B5F8
:402F00000020FFF7E9FF20EAE07008BD0821FFF7EFBF0921FFF7ECBF024B1B68587CFFF7F8BF00BF1C81FF1F034B082153F82000C3689B6A184700BF20A4FF1F10B5FEF745
:402F400063F928B1BDE81040C3680221DB6A184710BD0000024B1B68587CFFF7EFBF00BF1C81FF1F024B53F820301B695868704720A4FF1F024B53F820301B69186870473E
:402F800020A4FF1F0120FFF7B9BF0220FFF7B6BF014B83E803007047BCA2FF1F014B1868704700BFBCA2FF1F014B5868704700BFBCA2FF1F00283BD030F0010329D030F0FA
:402FC000030328D030F0070327D030F00F0326D030F01F0325D030F0FF0324D020F4FF7323F001030BB320F47F6323F00F03E3B120F4FF4323F07F03BBB1030C1B04A3B15A
:40300000830C9B049BB110F07F4F0CBF182020207047012070470220704703207047042070470520704708207047102070471220704708B5FFF7BEFF01280FD0831E062B13
:4030400009D9A0F10903072B07D911380F288CBF0020202008BD082008BD102008BD08B50020FEF7D1F8003018BF012008BD00000D4B10B51C461A68517C0C4A52F82100D6
:4030800040B1C36813B11B68042B01D00068F7E7FEF7F0F823680022DA6503F108025A61BDE81040FFF7BABD1C81FF1F20A4FF1F37B50C461546FEF7A7F8019008B9012046
:4030C0000CE0C36810215B6A01A8984703460028F5D001982A4621469847002003B030BD37B50C461546FEF78FF8019008B901200CE0C3680B215B6A01A89847034600286D
:40310000F5D001982A4621469847002003B030BD37B50C461546FEF777F8019008B901200CE0C3680A215B6A01A8984703460028F5D001982A4621469847002003B030BD77
:4031400010B5074C2368186BFFF7BEFDFFF7D8FD2368586BFFF7B8FDBDE81040FFF7ECBD1C81FF1F144B70B500241C60134B14481C60144B144D1C60144B04701C60144B21
:4031800044601C60134B84601C60134B21461C6018222B680C309847104B21461C60104B08221C600F482B6898472B682146BDE8704008220C4818475CA4FF1F44A4FF1FB0
:4031C000C4A2FF1F64A4FF1F4081FF1F6CA4FF1F34A4FF1F54A4FF1F60A4FF1F40A4FF1F38A4FF1F78A4FF1F70A4FF1FF0B507460C46164685B002AD002F48D03846FDF745
:40320000D7FB876A0146BB0701903AD526B13246284600F0DCFE02E003C885E8030029462046FDF7A3FE60B317F0010F019B1CD13EB1B3F90220B6F902309342B8BF13461E
:4032400001E0B3F90230B4F902209342B4F9062005DDBDF90A309A4213DB013B03E0BDF90E309A420DDDE3800BE0DF694FB138462A462146FFF7BAFF3846FDF78FFB076A9C
:40328000F4E7019B01A81F6AFDF7A0FBB4E705B0F0BD2DE9FF4106460F469046002502AC002E35D03046FDF783FB866A0146B207019027D5B8F1000F04D04246204600F037
:4032C00086FE02E003C884E8030021463846FDF74DFEB8B1F30705D4BDF80C30012501333B800FE0019BDE6966B1224639463046FFF7CFFF0028304618BF0125FDF74EFBE6
:40330000066AF1E7019B01A81E6AFDF75FFBC7E7284604B0BDE8F081F0B505460E46174685B002AC7DB32846FDF742FB856A0146AA07019021D527B13A46204600F047FE90
:4033400002E003C884E8030021463046FDF70EFE98B1EB0704D4BDF80830013BB3800CE0019BDD694DB1284622463146FFF7D4FF2846FDF713FB056AF4E7019B01A81D6A7D
:40338000FDF724FBCEE705B0F0BD000073B506460D462846FDF70CFB836A014613F00204019004D101A8FDF711FB204612E0304600F0F0FD019B01A89C693CB9FDF706FB88
:4033C000054B1868431B5842584103E0FDF7FEFA2546DEE702B070BD38A4FF1F2DE9FF4106460C4600294CD0FDF7E2FA00238461019003622046FDF7DBFAC76904AC44F842
:40340000080D2FB9C66101A8FDF7E0FA204636E0019B38469D6AFDF7CBFA0DF1100805F0080548F8040D75B9836A1A070BD5019B01A81F62029BDE61FDF7C8FA2046FDF764
:40344000C5FA40461BE02046FDF7C0FA4046FDF7BDFA3846FDF7A2FA0390039B1C6A0CB91E620BE02046FDF799FA002DF4D1836A1B07F1D5039B1E62019B1C6201A8FDF749
:40348000A5FA04B0BDE8F08103460846B3F90220B3F90010FDF752BD114B30B51C6885B0626C0546BAB11068516802AB03C30D4B186800B9A06CFDF77BFA04AC02A944F8C0
:4034C0000C0DFFF7E1FF2046FDF780FA02A8294600F060FD02A802F0C5F805B030BD00BF1C81FF1F34A4FF1F1FB50E4B1B6893F854200AB10C4811E0986CFDF759FA02AC90
:40350000019003C884E8030001A8FDF75FFA074B196811B12046FFF739FF2046FFF7BCFF04B010BD1C81FF1FD8A2FF1F34A4FF1F13B5044600B3FDF73BFA836A01909B07B2
:4035400017D5406A40B10D4B1B689C4204D000F051FF019B00225A62204600F045FC04463CB12046FFF7E4FF2046FDF717FA046AF6E701A8FDF72AFA02B010BD68A4FF1F50
:40358000B0F90020B0F904309A4208DCB0F90230B0F906008342CCBF0020012070470020704700007FB50D4604461646FDF7F6F9816A01908B0733D52846FFF7E1FF78B367
:4035C00040F601030B40012B2AD02046FDF7F0F902AC024601902946204600F0F8FC2046FFF7CEFFC8B144F22001019B9A6A03F10805114029B1224629462846FDF773FC30
:403600000BE0324394E8030085E803009A62054A138801331380FDF767FF01A8FDF7D6F904B070BD48A4FF1F2022FFF7BBBFF0B50F4685B01546064648B3FDF7B9F9836AC7
:4036400004AC9B07024644F80C0D03D42046FDF7BDF91CE0394602A800F0B9FC0028F5D02046FDF7B3F92A4602A93046FFF79AFF304600F0B9FB04464CB120462A4602A9B5
:40368000FFF7D5FF2046FDF789F9046AF4E705B0F0BD2DE9FF41804617461D460C4681B30846FDF785F9866A0246B307019025D5414602A800F08BFC00B340F60103334012
:4036C000012B07D101992B460A6A02A88969FFF7E0FF04E02A4602A92046FFF763FF019BDC695CB1BC4209D020462A4602A9FFF79EFF2046FDF752F9046AF2E701A8FDF7B7
:4037000065F904B0BDE8F0812023FFF7C2BF1FB504AB43F8101D1946019000F027FB05B05DF804FB00230B8002884B8083889B1A8B804288C3889B1ACB807047F0B50F461D
:4037400087B00546002833D0FDF732F9866A0190B2072AD503C804ACF30384E8030002D52846FFF7E5FE5FB13868796802AB03C302A90198FFF788FE02A9204600F00AFC7B
:4037800029462046FFF702FE78B140F601033340012B06D1019B20461A6A9969FFF7B4FF03E021462846FFF73FFF01A8FDF70EF907B0F0BD0021FFF7C1BF00000B4B70B52E
:4037C0001A680546966C1C4608B9094B1D689564FFF724FA2846FDF7E1F82368B0F90020DA64B0F9022030461A6570BD1C81FF1F4CA4FF1F2DE9F74FDDF830A098464C4BF8
:4038000005460E461746D3F80090BAF1000F24D1484B1B8833B3484B1B685A1C012A21D99A465046FDF7C4F8B0F90010B0F9022001900D4416441FB9B0F904305F1A013769
:40384000B8F1000F05D1B0F90630C2EB030808F1010801A8FDF7BAF804E0BAF1FF3FE0D14FF0000A0F982C30FDF736FA0446002859D0304A0D9B0DF1080B49EA030913883C
:4038800001331380FDF794F80E9B826A03612B4B4BF8080D09EA0303058046803D4446441343013D013E83628580C6805846FDF78DF8234B186848B1FDF770F8054620469D
:4038C000FDF76CF86B6943616C6100E01C6051462046FFF783FD19F0200F02D02046FFF76DFF19F0010F1FBF164A13680133136019F0400F02D0204600F086FA19F0020FF7
:403900000DD02046FDF754F8836A009043F0020383625846FDF75AF82046FFF74BFF01212046FFF7F4FE204603B0BDE8F08F00BF54A4FF1F30A4FF1F38A4FF1F9F3F3F0055
:403940004CA4FF1F6CA4FF1F1FB5089C0394079C0294069C019400240094FFF74BFF04B010BD00002DE9FF415D4F3B6893F85400002800F0B1805B4A136A1446012B03DDBE
:40398000013B13620020A7E0D36902AD013302F1140696E80300D36185E8030023B99389ADF80830D38910E0138BD28A0133ADF80A20B4F910201BB29A42ADF8083006DAFD
:4039C000A389ADF80830638B0133ADF80A30BDF90A20B4F91230DFF80C819A4204DD236A0020013B236277E03B68986CFCF7E0FFBDF90820B8F90C3001909A421CD1B8F8BA
:403A00001230ADF80E30B8F81030ADF80C30344B1B689A6C5AB11046FCF7C0FF804600222946006AFFF7E2FBD8F81820F2E7019B2946D869FFF7DAFBBDF80830ADF80C301B
:403A40003B689A6C6AB11046FCF7A8FF002280462946006AFFF71DFC0028EDD1D8F81820F0E7019B2946D869FFF713FC0028E3D1B4F91030BDF90820ADF80C309A4207DD64
:403A800095E8030086E8030001A8FCF79FFF97E73B689A6C52B11046FCF780FF074600222946006AFFF738FCBA69F3E704AF57F80C3D2946D869FFF72FFC3846FCF786FF68
:403AC00044F62063E2699A4289DC95E8030086E80300FFF709FD012004B0BDE8F08100BF1C81FF1FC4A2FF1F2DE9F041394E86B03268804692F8543013B9FFF7F5FC64E03E
:403B0000354F3B6A3D460133012B3B625DDC906CFCF74EFF4FF0FF33FB61304B00901B7813B102AB083004E0836A13F002040CD002AB03C802AC83E80300B8F1000F0CD075
:403B40004146204600F026FA07E03B6A6846013B3B62FCF73BFF204638E03368204F5A6CC2B1009B10685168019304AB03C33B6833B101A8FCF72AFF3868FCF719FF0190EA
:403B800004A90198FFF780FC204604A900F002FA01A800E06846FCF719FF396819B12046FFF7F4FB28B133682046996CFFF7EEFB18B92B6A013B2B6208E00A4B94E80300AD
:403BC00083E80300FFF7CEFE00E0012006B0BDE8F08100BF1C81FF1FC4A2FF1F51A4FF1F34A4FF1FD0A2FF1F024B01221B6883F8542070471C81FF1F10B50446236840689B
:403C0000172B10D007DC0E2B0FD0142B14D1E16800F0D2F810E0222B0CD0282B0CD1BDE81040FFF7C7BDE06010BD2146BDE8104000F02DB9024B00E00023E36010BD00BF2A
:403C4000785634FF036810B50E2B044602D00F2B09D011E0C3685A68012A12D1BDE810401868FDF709BC074B1868074B984203D0FDF7A2F9FDF722FA2046BDE81040FFF7D0
:403C8000BBBF10BD58A4FF1F785634FF30B51D4C85B02178002932D11B4B084619601B4BA1601B681A4D59641A4B19801A4B198004230293194B01930223009343F6FF730C
:403CC0001A46FFF741FE164A164B28601A60FFF771FD154800F068F8144800F065F82868FFF76CFDFFF780FF204601232370104B40F8243F05B0BDE83040FDF7EFB905B020
:403D000030BD00BFC4A2FF1F4CA4FF1F1C81FF1F38A4FF1F48A4FF1F30A4FF1F453C0000785634FF58A4FF1F78A4FF1F70A4FF1F6531000008B500F05FF818B1FCF72EFE0A
:403D4000C06908BD08BD38B50546FFF7F3FF044654B1AC4207D02046FCF720FE036A9D4202D01C46F4E70024204638BD70B50D4C064623680D46132B12DCFCF70FFE0269CC
:403D80006E6042B1236828460133236090472368013B236070BD2846BDE87040FFF72CBF70BD00BFF4A2FF1F024B1A6802601860704700BF5CA4FF1F37B50D4658B151B179
:403DC000FCF7F6FD02AC44F8040D2946FFF7AAFC2046FCF7FBFD03B030BD0000014B1868704700BF38A4FF1F08B5034610B1FCF7D5FDC369184608BD08B5034610B1FCF715
:403E0000CDFD8369184608BD2DE9F043044687B0002839D0FCF7CCFD034604AD019003C885E8030001A81E6AD3F82890FCF7CEFD2046FFF788FF074630B32046FFF7DCFF70
:403E400019F0020F804604D0014632462846FFF75BFC2046FCF7ACFD01904046FCF7A8FD03903846FCF7A4FD039B019AD96906620290116201A8DC61FCF7A8FD03A8FCF7BA
:403E8000A5FD02A8FCF7A2FD07B0BDE8F08338B505460C4641B1FFF7AFFF28B1A5602146BDE83840FFF762BF38BD0000F7B5061E0C4662DC324D6B6803B19847012C04D081
:403EC000022C20D0002C58D133E005EB8605AF68AFB93046FDF798F9019000284DD0C3680D215B6A01A898470346002845D0214601989847AB6838460133AB603EE0781CE4
:403F0000A86020463AE03046FDF77EF90190002833D0C3680D215B6A01A89847044600282BD02B6803B1984702210198A047002024E0B4002B199B68012B01D0012015E04E
:403F40003046FDF761F901900028F7D0C3680D215B6A01A8984706460028EFD0084B1B6803B1984700210198B04700202544AB68002B18BF013BAB6000E0012003B0F0BDC4
:403F8000F8A2FF1F024B01461B68587CFFF78EBF1C81FF1FB1F90030B0F900209A42B8BF0380B0F90220B1F902309A42B8BF4380B0F90420B1F904309A42C8BF8380B0F970
:403FC0000620B1F906309A42C8BFC380704770B5B1F90030B2F9005006469D42B8BF1D46B1F902300580B2F90200B1F904408342B8BF0346B2F9040073808442A8BF0446C5
:40400000B2F90600B1F90620B4808242A8BF0246A542F28004DC9342CCBF0020012070BD002070BD70B5840742BF02F1FF3201800230540824D0032C234601EB014502D888
:4040400000EB830317E0264600F11003043E032E43F8105C43F80C5C43F8085C43F8045C03F11003F2DC043CA3085E1C00EB0610A4EB8303E4E7984202D040F8045BFAE732
:40408000D30748BF018070BD0A4B1A68938D03F00C03082B07D00C2B05D0042B07D1D369187E01387047D369187E400870470020704700BF1C81FF1F024B1B68DB69587E8D
:4040C000704700BF1C81FF1F024B00211B68DB695B6818471C81FF1F024B1B68DB695B68184700BF1C81FF1F7047000073B5154602AB214A43F8081D1946019012689047DA
:404100001E4C01902368586940B90120FFF73AFF2268D3695B693BB9194D22E02946FCF725FF0028F1D124E0164C9B68216841B1B2F92250019800999847236828469847AF
:4041400014E000990198984710E001A8FDF79CF923680646DB691B6898472B680BB130469847009B013B002B0093EEDA0020FFF709FF02B070BD00BF4481FF1F1C81FF1F40
:40418000FCA3FF1FF0A3FF1F37B50D460190044688B10A4B1B68DB695C6954B1646844B1A04709E001A8FDF76FF920B10A2802D00134AC42F6DB204603B030BD1C81FF1F38
:4041C00013B5002402A941F8044DFFF785FF019B9842ACBF2046181A02B010BD37B5154A02AB43F8081D01901268194690470190E8B1114B1B68DB695C690CB124680CB973
:40420000254602E00099A04711E0009B013B002B009307DB01A8FDF737F90446FFF754FF0544F2E72046FFF7CBFF2844FFE703B030BD00BF4481FF1F1C81FF1F274BF7B534
:404240001B6805460E4663B10020FFF74DFC002841D06A4631462846FFF748FFFFF782FBF5E76B46106851681D4C03C32268BDF80030B2F84C70B2F850003B44BDF8021029
:40428000BDF80420ADF80030BDF80630014403443A446846ADF80210ADF80420ADF80630FFF722FC236840B9D96C5A8C521A5A84196D9A8C521A9A840DE0BDF800203146D6
:4042C0005A84BDF8022028469A846A46FFF70EFFFFF748FBE6E703B0F0BD00BFDCA3FF1F1C81FF1F70B5074C064623685D7C30B9FCF78AFF18B123685E74FCF754FE2846E7
:4043000070BD00BF1C81FF1F08B5FEF705FEB0F5807F10D07F2810D83F2810D81F2810D80F2810D8072810D8032810D8012894BF002001200CE008200AE0072008E0062057
:4043400006E0052004E0042002E0032000E00220012303FA00F0013808BD38B50446FEF7DBFD0546FEF7F6FDA54203D918B150F8240038BD002038BD2DE9F8438146FEF7CE
:40438000CBFD0746FEF7E6FD0646E0B1002056F820304B4517D001308742F8DC002425466FF07F4856F825104846FCF775FD804588BF2C4605F1010588BF8046AF42F1DCC0
:4043C0002046BDE8F883BDE8F88337B5044670B1FCF7EEFA036802AD1B6945F8040D9B689847FEF726FE04462846FCF7EFFA204603B030BD37B50446D0B10E4B1B68DB6D89
:40440000984201D1FCF7CFFD2046FCF7D1FA0190406908B100F018FD02AD55F8043D1868FCF702FF2846FCF7D1FA2046FCF7EEFA03B030BD1C81FF1F0129024818BF002011
:40444000704700BFB47100001629024818BF0020704700BF194F0000006810B1C3681B6A1847704737B580680D46FCF7A1FA0246B2F904301489B2F906102B801C44538933
:4044800002A80B44013B013C40F8042D6980AC80EB80FCF79BFA03B030BD00000E4B73B51B680646D86D0D46FCF782FAB0F90610C468691AB0F9045002AB761B76001836B5
:4044C00004FB016543F8040D44191846FCF77EFA204602B070BD00BF1C81FF1F08B508461146FFF7DBFF008808BD0000144BF7B51B680746D86D16460D46FCF759FA31461B
:4045000000902846FFF7CAFF3B6904469B68984723885840009B2080586960B1FCF748FA836802AC44F8040D1B683246294698472046FCF74BFA6846FCF748FA03B0F0BD59
:404540001C81FF1F73B51C46104B0D461B681646D86DFCF72DFA314600902846FFF79EFF009B0480586960B1FCF722FA836802AC44F8040D1B683246294698472046FCF77A
:4045800025FA6846FCF722FA02B070BD1C81FF1F2DE9F7432C4C1E4623688046D86D0F461546FCF705FA00904069A14608B1FCF7FFF9019029463846FFF770FFD9F8003079
:4045C00004461A7CD2071FD5D8F810309B6898471FFA80F8019820B183682A461B68394698472388013588EA03032380009BB542DB681C44EEDD6846FCF7E8F9019B03B315
:4046000001A8FCF7E3F91CE0DB6B009AD3F80090019BD2F80C8063B101982A46836839461B6801359847AE42A4F800904444F3DAE1E7751B0135013DA4F800904444FAD1FE
:40464000D9E703B0BDE8F0831C81FF1F2DE9F04F2A4F1D463B681446DA6B87B012688346D86D89460292FCF7A3F9214604904846FFF714FF049A0646D3685069C9EB0505A2
:40468000039305F1010A88B1FCF792F9109B0DF118081B1B013348F8040D224600934946534600F0E5FB4046FCF790F9BDF808806D00109B9C421ADC3B681B7CDB070DD50C
:4046C000DBF810309B689847B31E80B2711933F8022F42408B421A80F9D104E0524641463046FFF79FFC039B01341E44E1E704A8FCF76CF907B0BDE8F08F00BF1C81FF1FC9
:4047000007B50092FFF7A2FF03B05DF804FB00002DE9F04F904D91B002932B680A90D86D0E4605921D9CFCF743F90E90406908B1FCF73EF90F9010A850F8083DDB68079355
:40474000FCF744F91E9B0F9806EB030B50B12B681B7C990706D11A9B059A00935946029B00F086FB05995846FFF798FE1B9B0546102B22D1029BDFF8E4914FEA43080026EA
:404780001A9B9E4280F24A838CB185B10F9F424621462846D9F80030984747B1BB68059AD3F804A03244029B59463846D0471C9B01361C44079B1D44E2E71B9B172B44DD24
:4047C0006FF0030303FB0BF306936FF0010303FB0BF30493029B4FF000085B4408931A9B984580F21B83059B03EB080934B91C9B08F101081C44079B1D44F0E7002DF6D097
:404800000F9F37B1BB684A465E685946029B3846B0475E46069B04EB030A049BEB1803930A9B5AF826001B691B689847039B23F816002FB1BB684A461B6831463846984783
:40484000089B01369E42EBD1D1E71B9B082B40F08780029B059E5B0006936FF0010303FB0BF30393029BDFF8F0905B44013C0493059B1A9AF31A9A4204F1010140F3CE82A3
:404880001F9B002B36D0D9F800301B7C13F0030309D0022B5AD1039BDDF83C80EB180893A2465F4621E0069B2246E9182B4612F8010F1F9F57F8200023F8020B8B42F6D162
:4048C00044E01F9A52F82330089A22F81730B8F1000F06D0D8F8083032461B68394640469847049B01379F4230D01AF8013F002BF7D0E6E7D9F800301B7C13F0030309D083
:40490000022B23D1039BDDF83C80EB180893A2465F4616E0114B029A28461B68984715E0089A22F81730B8F1000F06D0D8F8083032461B68394640469847049B01379F4219
:4049400004D01AF8013F002BF7D0E9E7079B01361D441C9B1C448BE71C81FF1F3C81FF1FAF4B1F9A002A08BF1A461E9B1F925B000B931E9B9B000C93631C0393831C06934F
:40498000059B0493069B059A9C1E039B03F1FF3A049B9B1A1A9A9A4240F340821B9B022B00F0C980042B00F06481012B40F02A829C4B1B68D86DFBF7FBFF1E9B9A4AC3F10E
:4049C0000805039B0E9013F8013CDDF83C90D65C1E9B029F1E41934B1B681B7C03F00303022B1FD0032B59D0012B57D0BD4228BF3D4622462B467F1B1F9806F0010150F810
:404A00002110013B22F8021B4FEA5606F4D104EB4504002F00F08B801AF8013F824A0825D65CE3E7D8461F9B9B880893BD4228BF3D467F1BB9F1000F24D01EB904EB45047A
:404A4000A84423E0F20709D5D9F80830049A1B68414648469847BDF820302380013D08F1010804F1020411D07608E6E7F30748BFBDF8203004F1020448BF24F8023C013DA3
:404A800004D07608002EF1D104EB4504002F4ED01AF8013F644A0825D65CC7E70A9BD8461B699B68984783B20993039B0893BD4228BF3D467F1BB9F1000F1CD0A24608EB6C
:404AC00005030D93F0070CD5D9F80830049A1B68414648469847BAF80030099A5340AAF800300D9B08F1010898450AF1020A4FEA5606E7D10FE02A462346F10744BF1988EF
:404B0000099803F1020344BF414023F8021C013A4FEA5606F1D104EB450447B1089B424A1B780825D65C089B01330893BFE70EA8FBF74CFF66E11E9BC3F10405039BEDB236
:404B400013F8016C0B9B9E40364BF6B21B681B7C03F00303012B09D00AD3022B40F052810F9BDDF8088008935F4636E0029B79E0029B9D42C8BFDDB22A4621465B1B1F9FFB
:404B8000B00957F82000013AB60012F0FF0221F8020BF6B2F3D1013DEDB2013504EB4504002B00F02F811AF8016F0425E1E716F0C00F24D10D9B09F10109B6009945F6B20C
:404BC000F5D16B1C013704EB43042F44B8F1000F00F018811AF8016F04254545C8BF5FFA88F5C5EB0808013DEDB27B1C2B440D936FF0010303FB0743B9460993D7E71F9AB4
:404C0000B30952F82330099A22F81930089B002BD0D09B68049A1B68494608989847C9E7E87100001C81FF1F2872000016F0C00F18BF088802F1FF321CBF80F0FF000880E5
:404C4000B60012F0FF0201F10201F6B2EED1013DEDB2013504EB4504002B00F0D3801AF8016F04259D42C8BFDDB25B1B2A462146DCE7039B0C9A13F8013C93406B4ADDB213
:404C80001268127C02F00302012A00F0958002D3022A35D0B6E01E9B5BB11F9B2D0953F82530039A2380029B069C013B1578924600E0029B012B1ADD5910221D03F0010375
:404CC0000AEB01001F9F2E0905F00F0557F8266057F8255022F8046C22F8025C1AF8015F3E46824502F10402ECD104EB8104002B00F088801F9B2D0953F82530238081E087
:404D00001E9A0F9EC2B113F0F00F0BD01F9B2D0953F8253023802EB1B368049A1B68594630469847029B069C03F1FF38039B0BF101071D789A460FE0DDF808805F460BE01F
:404D400015F0F00F0CD115F00F0517D11AF8015F04340237A8F10208B8F1010FF0DC1AE01F9A2B0952F823302380002EEBD0B368049A1B68394630469847E4E71F9B53F856
:404D800025306380002EE1D0B368049A1B68791C30469847DAE7B8F1000F33D02D0931D01F9B53F82530238066B3B368049A1B6839463046984725E01E9B029AC3F10203CA
:404DC000DBB29342C8BFD3B219462046D21A15F0C00F18BF068801F1FF311CBF86F0FF0606802D0111F0FF0100F10200EDB2EED1013BDBB2013304EB43041AB11AF8015F6D
:404E00000223DEE7049B1C9A01330493039B13440393079A069B13440693B3E50F9B13B10FA8FBF7D3FD11B0BDE8F08F1C81FF1F082904D0006820B1C3689B6A184710208F
:404E400070474FF0FF30704737B50546FBF7B0FD848902AB013C24B243F8040D84811846FBF7B4FD14B92846FBF7D0FD03B030BD2DE9F843054688469946089C1444AB686F
:404E8000561C5F6841464B462846B847B4423246F5D1BDE8F8832DE9F84F81460D4616461F4614468846DDF828B0DDF82CA039F8020BD847D047013C48F8040BF7D11F2F1C
:404EC00006D83A4631462846BDE8F84F00F0E2BBBDE8F88F2DE9F84F80460D4616461F4689460446DDF828B0DDF82CA014F8010BD847D047331B18EB030F49F8040BF5D165
:404F00001F2F06D83A4631462846BDE8F84F00F0C1BBBDE8F88F00002DE9F04F9BB0089109920546002800F09983FBF741FD1AAB43F81C0D44691846FBF748FD2846FFF70A
:404F400044FA08280746A54E02DD002C00F0C98101230027284619930D931897FBF728FD0268B0F90A3012690E93536832680DF1680949F8140D0469D0F81480D0F80CA0A7
:404F8000B0F908B0507C0C93FDF7CEFF32680B90507CFDF7E7FF0A904846FBF717FD082C0A9A0D9B04D9102C8CBF0423022305E0012C03D118AB0D940A9301E00D930A9722
:404FC0000C9B934200F0DF803368587CFDF7D2FF0F904FEA8B00FBF77BFE1090002800F03D83284600F00DFC0546B8F1000F00F0B9804046FBF7DCFC05EB0A0311930023C5
:40500000DDF8249016900993119B099ACAEB03070E9B934240F3A28016980023179383680DF15C085B69099A414698478345054628D11098FBF7BCFC0F9B082C01930C9BB8
:405040000146149000935A460B9B384602D9FFF722FF01E0FFF73EFF0A9B1AAD059355F8183D08980493002303930B9B5A4602930123019300934946FDF7BEFC2846FBF78F
:40508000A5FC62E0012C02D04FF0010857E0002D5BD01798089E00F0070306930A9B2A460593082390FBF3F33B440493012302930193009349463044CDF80CA0FDF7B0FBFD
:4050C000179B16981D44836817955B69099A414698470546DBE71098FBF76AFC0F9B01461490019317980C9B0D9E082C00932A460B9B00FB067025D9FFF7CDFE0A9B1798F3
:405100000593149B089E0493002303930B9B2A464946029330440123CDF80480CDF80080FDF76AFC14A8FBF751FC179B16981D44836817955B69099A17A998470546002DA7
:40514000C9D102E0FFF7C6FED8E7099B09F1010901330993119B5344119355E716A8FBF735FC0EE00A9B04900593012301930093CDF80CA002940E9B5A4609990898FDF72E
:405180003BFC109868E2284600F03BFB0746B8F1000F00F09A804046FBF70AFC002516900E9BAB4240F38D8016980023179383680DF15C085B692A4641469847834506468E
:4051C00026D12E46169806F1010983684A465B6941469847834503D14E46F3E71C81FF1F0A9BC5EB0608099908F10108059301230497019300932944CDF80CA002944346A9
:405200005A460898FDF7F8FB0AFB0877354656E0012C099B04D02B440B934FF001092BE0A04603EB05092EB3DDF85CE008980EF0070306930A9B3246059308239EFBF3F398
:405240003B447044049349460123CDF80CA0CDF80880CDF80480CDF80080FDF7E1FA179B16981E44836817965B692A4617A998470646D8E7574422E0002EFBD00A9BDDF84E
:405280005CE005930D9B089803FB0E733246704404930B990123CDF80CA00294CDF80490CDF80090FDF7A8FB179B16981E44836817965B692A46414698470646DCE7013543
:4052C0006EE716A8FBF782FBC8E10A9B04900593012301930093CDF80CA002940E9B5A463AE02846FBF764FB83461AA8BBF90A3040F810BDDBF800200B93DBF80C30D2F856
:4053000010800C93BBF90840FBF760FB3268D8F80490507CA14A52F82020166933680A93FDF702FE08280C9B06D910288CBF4FF0040A4FF0020A01E04FF0010AB04510D139
:40534000002205922246039301230BF11800019300930B9B0490029709990898FDF74CFB7CE1202F40F0A2800AFB04F0FBF7B0FC0D90002800F07281FBF71AFB189028466D
:40538000FBF716FB169033694FEACA0200F118054FEA840B0C9273B3DDF824804FF00109BAF1020F05D0BAF1040F02D0BAF1010F06D128463769534622461899B8475D4434
:4053C0000023189A059303930C9B0492029322460123CDF80490CDF8009041460898FDF70BFB0B9B099A08F1010713449F4200F02C81B846D4E7099F1E460B9B4FF00109AA
:405400003B440993BAF1020FDDF8608016D0BAF1040F24D0BAF1010F30D143462A4652F8040B0E930A9B0B9298470E9B0B9A03F8010BE11A18EB010FF1D11EE043462A465C
:40544000A04652F8040B0E930A9B0B9298470E9BB8F1010823F8020B0B9AF2D10DE02A46234652F8040B0E930A9B0B9298470E9B48F8040B013B0B9AF3D15D44189B0596D3
:4054800004930C9B03960293CDF804900123CDF80090224639460898FDF7AEFA099B07F10108434500F0D1804746ABE7102F40F0D58004FB0AF0FBF70BFC0D90002800F093
:4054C000CD80FBF775FA18902846FBF771FA1690336900F1180713B1D8F8143053B94FEACA03099D0C930B9B66002B444FF0000B099383E0B0F908008000FBF7E9FB0C90A3
:4055000018B1FBF755FA179001E00C9B1793179B002B00F09A8063000A93DDF824B04FEACA030E93BAF1020FDDF8609006D0BAF1040F05D0BAF1010F11D101E0534600E070
:405540000223384622461799D8F81450A84753462246494617983569A8470A9B1F440023059303930E9B189A02930123049201930093224659460898FDF73EFA0B9B099A3B
:405580000BF101091344994501D0CB46CAE717A8FBF71CFA0C98FBF739FA56E020A4FF1FBAF1040F41D0BAF1010F11D143463A4632F8020B0E930B92C8470A9B98470E9B4F
:4055C0000B9A03F8010BE11A18EB010FF0D13744189BCDF814B004930C9BCDF80CB00293012301930093224629460898FDF704FA099B05F10108434527D04546BAF1020F08
:40560000DDF86080CCD143463A46A04632F8020B0E930B92C8470A9B98470E9BB8F1010823F8020B0B9AF1D1D1E73A46234632F8020B0E930B92C8470A9B98470E9B48F8A5
:40564000040B013B0B9AF2D1C1E716A8FBF7BEF918A8FBF7BBF90D98FBF7D8F91BB0BDE8F08F00BF37B50546084C694623685A7C074B53F82200C3681B6B984720686A46CA
:4056800029460830FEF7A3FC03B030BD1C81FF1F20A4FF1F082A10B50EDD102A0ADC034600EB410150F8042B23F8022B8B42F9D1012010BD002010BD022A2AD104460368ED
:4056C00001294FEA8313DBB220D0426802294FEA021202F0300243EA020301D1083016E0826803294FEA820202F00C0243EA020301D10C300BE0C268043902F0030213430A
:40570000103004F8013B0029D9D1D1E704300021F7E7042A15D104460129036818BF42684FEA0313DBB21BBF02F00F021343002102390CBF0430083004F8013B0029EBD100
:40574000B6E7012A034654D11A6801294FEAC212D2B24BD05C6802294FEA841404F0400442EA040201D1083341E09C6803294FEA441404F0200442EA040201D10C3336E011
:40578000DC6804294FEA041404F0100442EA040201D110332BE01C6905294FEAC40404F0080442EA040201D1143320E05C6906294FEA840404F0040442EA040201D11833CE
:4057C00015E09C6907394FEA440404F0020442EA040217BFDC691C3304F00104224318BF203300F8012B0029AED161E704330021F7E7014450F8042B03F8012B9942F9D1FE
:4058000056E713B558B1FBF7D3F802AB43F8040D00F118041846FBF7D9F82046FFE702B010BD00000E4B70B51E460E4C0025E41AA410A54204D056F8253098470135F8E746
:4058400001F072FD084B094C1E46E41AA4100025A54204D056F8253098470135F8E770BD3473000034730000347300003C73000010B5431E0A44914204D011F8014B03F857
:40588000014FF8E710BD814210B501EB020301D3421E0BE09842FBD28118D21AD34204D013F8014D01F8014DF8E710BD994204D011F8014B02F8014FF8E710BD034602446A
:4058C000934202D003F8011BFAE7704700000000362E31313520526F636B732100000000005100405000605100401000C05100401000F051004010000000014000100014DB
:405900000140000800400140000A004C014000020050014020000000090D0000450E00005D0E0000630E00000000000000000000080901016059000007050700090D000019
:40594000450E00005D0E0000630E000000000000000000000808010160590000070507003C5B00003C5B00007459000020007E00060601009000FF007C5900009D00FFFF75
:405980009E00FFFF9F00FFFFA000FFFFA100FFFFA200FFFFFFFFFFFFFFFFFFFFFFFFFFFFFFFFFFFFFFFFFFFFFFFFFFFFFFFFFFFFFFFFFFFFFFFFFFFFFFFFFFFF7E00FFFF7D
:4059C0007600FFFF7F00FFFF8000FFFF8100FFFF8200FFFF8300FFFF8400FFFF8500FFFF8600FFFF8700FFFF8800FFFF8900FFFF8A00FFFF8B00FFFF8C00FFFF8D00FFFF77
:405A00008E00FFFF8F00FFFF9000FFFF9100FFFF9200FFFF9300FFFF9400FFFF7D00FFFF9500FFFF9600FFFF9700FFFF9800FFFF9900FFFF9A00FFFF7700FFFF7000790023
:405A40007000780070007A0070007C0070007B006600FFFF6800FFFF23007D00710079007100780071007A0071007B00720079007200780072007A0072007B006900FFFF54
:405A800075007C00730079007300780073007A0073007C0073007B009B00FFFF6E00FFFF740079007400780074007A0074007B00390078006A00FFFF6500FFFF410060007C
:405AC00041005F004100610041006300410062006700FFFF6B00FFFF43007D004500600045005F0045006100450062006400600064005F0064006100640062006C00FFFF7D
:405B00004E0063004F0060004F005F004F0061004F0063004F0062009C00FFFF6F00FFFF5500600055005F00550061005500620059005F006D00FFFF590062000000000089
:405B400000000000202020202000200048484800000000005050F850F85050002078A07028F02000C0C81020409818006090A040A8906800602040000000000010204040A5
:405B8000402010004020101010204000005020F820500000002020F8202000000000000000602040000000F80000000000000000006060000008102040800000708898A88D
:405BC000C88870002060202020207000708808304080F800708808300888700010305090F8101000F880F00808887000304080F088887000F8081020404040007088887075
:405C00008888700070888878081060000060600060600000000060600060204010204080402010000000F800F800000080402010204080007088081020002000708808689C
:405C4000A8A87000708888F888888800F08888F08888F0007088808080887000E09088888890E000F88080F08080F800F88080F0808080007088808098887800888888F814
:405C800088888800702020202020700038101010109060008890A0C0A0908800808080808080F80088D8A8A8888888008888C8A8988888007088888888887000F08888F054
:405CC0008080800070888888A8906800F08888F0A09088007088807008887000F82020202020200088888888888870008888888888502000888888A8A8A85000888850201C
:405D0000508888008888885020202000F80810204080F800704040404040700000804020100800007010101010107000205088000000000000000000000000F8402010002B
:405D40000000000000007008788878008080B0C88888F0000000708080887000080868988888780000007088F8807000304840E04040400000007888887808708080B0C893
:405D80008888880020006020202070001000301010109060808090A0C0A0900060202020202070000000D0A8888888000000B0C88888880000007088888870000000F088FB
:405DC00088F0808000007888887808080000B0C880808000000078807008F0004040E040404830000000888888986800000088888850200000008888A8A850000000885043
:405E00002050880000008888887808700000F8102040F80010202040202010002020202020202000402020102020400068900000000000001820000000000000C0200000A2
:405E4000000000007088000000000000500000000000000068900000000000000000006020207000006090F08888B08020007088F888880020007008788878003860A0B892
:405E8000E0A0B800704848E848487000E0407048487040E00000D02878A05800A040A010788870006020302830207000708898A8C888700000007098A8C87000000070883A
:405EC000F88888000000F880E080F800000070202020700000007088888870000000888888887000000088C8A898880020002020202020002000204080887000182000007A
:405F000000000000C02000000000000020500000000000005000000000000000689000000000000000000000000000200000000000000000002070A0A0A87020304040E011
:405F40004048B00000008870507088008850F820F8202000202020002020200030482050209060008800000000000000F888A8B8A888F8007008788870000000002850A039
:405F800050280000000000F8080800000000007000000000F888A88898A8F800F8000000000000002050200000000000002070200070000060902040F0000000E0106010C1
:405FC000E000000018200000000000000000888888C8B0807898987818181800000000303000000040C04040E0000000708888887000000000A0502850A000008890A05049
:40600000B05078108890A040B8081038C040C048D82838080088502050880000002000F800200000103070FC70301000203038FC38302000002070F820200000002020F820
:406040007020000000082868F86020000004040808905020090D0000450E00005D0E0000630E0000000000000000000010300303C06000000C070A00090D0000450E000037
:406080005D0E0000630E0000000000000000000010200202D46000000C070A00090D0000450E00005D0E0000630E0000000000000000000010200102546100000C070A0035
:4060C00030630000306300006861000020007F000818010030630000306300006861000020007F0008100100090D0000450E00005D0E0000630E0000000000000000000005
:4061000010120101546100000C070A00090D0000450E00005D0E0000630E0000000000000000000010110101546100000C070A00090D0000450E00005D0E0000630E0000EA
:40614000000000000000000010100101546100000C070A0030630000306300006861000020007F00080801009000FF00706100009D00FFFF9E00FFFF9F00FFFFA000FFFFBA
:40618000A100FFFFA200FFFFFFFFFFFFFFFFFFFFFFFFFFFFFFFFFFFFFFFFFFFFFFFFFFFFFFFFFFFFFFFFFFFFFFFFFFFFFFFFFFFF7E00FFFF7600FFFF7F00FFFF8000FFFFDD
:4061C0008100FFFF8200FFFF8300FFFF8400FFFF8500FFFF8600FFFF8700FFFF8800FFFF8900FFFF8A00FFFF8B00FFFF8C00FFFF8D00FFFF8E00FFFF8F00FFFF9000FFFF37
:406200009100FFFF9200FFFF9300FFFF9400FFFF7D00FFFF9500FFFF9600FFFF9700FFFF9800FFFF9900FFFF9A00FFFF7700FFFF700079007000780070007A0070007C0004
:4062400070007B006600FFFF6800FFFF23007D00710079007100780071007A0071007B00720079007200780072007A0072007B006900FFFF75007C00730079007300780042
:4062800073007A0073007C0073007B009B00FFFF6E00FFFF740079007400780074007A0074007B00390078006A00FFFF6500FFFF4100600041005F00410061004100630056
:4062C000410062006700FFFF6B00FFFF43007D004500600045005F0045006100450062006400600064005F0064006100640062006C00FFFF4E0063004F0060004F005F004D
:406300004F0061004F0063004F0062009C00FFFF6F00FFFF55005F0055006000550061005500620059005F006D00FFFF59006200000000000000000000000000000000008F
:406340000000183C3C3C18181800181800000000006666662400000000000000000000000000006C6CFE6C6C6CFE6C6C0000000018187CC6C2C07C060686C67C181800001F
:4063800000000000C2C60C183060C686000000000000386C6C3876DCCCCCCC76000000000030303060000000000000000000000000000C18303030303030180C0000000089
:4063C000000030180C0C0C0C0C0C1830000000000000000000663CFF3C66000000000000000000000018187E1818000000000000000000000000000000181818300000002C
:4064000000000000000000FE0000000000000000000000000000000000001818000000000000000002060C183060C080000000000000386CC6C6C6C6C6C66C380000000046
:4064400000001838781818181818187E0000000000007CC6060C183060C0C6FE0000000000007CC606063C060606C67C0000000000000C1C3C6CCCFE0C0C0C1E000000000C
:406480000000FEC0C0C0FC060606C67C0000000000003860C0C0FCC6C6C6C67C000000000000FEC606060C18303030300000000000007CC6C6C67CC6C6C6C67C0000000014
:4064C00000007CC6C6C67E0606060C78000000000000000018180000001818000000000000000000181800000018183000000000000000060C18306030180C0600000000B6
:4065000000000000007E00007E000000000000000000006030180C060C1830600000000000007CC6C60C181818001818000000000000007CC6C6DEDEDEDCC07C00000000AB
:40654000000010386CC6C6FEC6C6C6C6000000000000FC6666667C66666666FC0000000000003C66C2C0C0C0C0C2663C000000000000F86C6666666666666CF80000000093
:406580000000FE6662687868606266FE000000000000FE6662687868606060F00000000000003C66C2C0C0DEC6C6663A000000000000C6C6C6C6FEC6C6C6C6C600000000A7
:4065C00000003C18181818181818183C0000000000001E0C0C0C0C0CCCCCCC78000000000000E666666C78786C6666E6000000000000F06060606060606266FE000000000B
:406600000000C6EEFEFED6C6C6C6C6C6000000000000C6E6F6FEDECEC6C6C6C60000000000007CC6C6C6C6C6C6C6C67C000000000000FC6666667C60606060F00000000050
:4066400000007CC6C6C6C6C6C6D6DE7C0C0E00000000FC6666667C6C666666E60000000000007CC6C660380C06C6C67C0000000000007E7E5A1818181818183C00000000A6
:406680000000C6C6C6C6C6C6C6C6C67C000000000000C6C6C6C6C6C6C66C3810000000000000C6C6C6C6D6D6D6FEEE6C000000000000C6C66C7C38387C6CC6C60000000000
:4066C0000000666666663C181818183C000000000000FEC6860C183060C2C6FE0000000000003C30303030303030303C0000000000000080C0E070381C0E060200000000B4
:4067000000003C0C0C0C0C0C0C0C0C3C0000000010386CC600000000000000000000000000000000000000000000000000FF00000030180C000000000000000000000000B4
:406740000000000000780C7CCCCCCC76000000000000E06060786C666666667C0000000000000000007CC6C0C0C0C67C0000000000001C0C0C3C6CCCCCCCCC760000000061
:4067800000000000007CC6FEC0C0C67C0000000000001C36323078303030307800000000000000000076CCCCCCCCCC7C0CCC78000000E060606C7666666666E60000000035
:4067C00000001818003818181818183C0000000000000606000E06060606060666663C000000E06060666C78786C66E60000000000003818181818181818183C00000000E9
:406800000000000000ECFED6D6D6D6C6000000000000000000DC6666666666660000000000000000007CC6C6C6C6C67C000000000000000000DC66666666667C6060F00034
:40684000000000000076CCCCCCCCCC7C0C0C1E000000000000DC7666606060F00000000000000000007CC660380CC67C000000000000103030FC30303030361C0000000086
:406880000000000000CCCCCCCCCCCC76000000000000000000C6C6C6C6C66C38000000000000000000C6C6D6D6D6FE6C000000000000000000C66C3838386CC60000000094
:4068C0000000000000C6C6C6C6C6C67E060CF8000000000000FECC183060C6FE0000000000000E18181870181818180E000000000000181818181818181818180000000012
:406900000000701818180E1818181870000000000076DC0000000000000000000000000000001C30000000000000000000000000000070180000000000000000000000009B
:406940000010386C00000000000000000000000000C6C6000000000000000000000000000076DC0000000000000000000000000000000000003818181818183C0000000099
:406980000000386C6C6C786C6666666C60C00000102810007CC6C6FEC6C6C6C6000000000030483000780C7CCCCCCC760000000000001E7AD8D8D8FED8D8DADE000000004B
:4069C0000000FC666666F6F6666666FC000000000000F0607C666666667C60F0000000000000000000CC323E70B0B26C000000000000D060B0187CC6C6C6C67C000000009D
:406A00000000E06060786C6C786060F00000000000007CC6CECED6D6E6E6C67C0000000000000000003A44CED6E644B800000000000000386CC6C6FEC6C6C6C6000000005C
:406A4000000000FE66626878686266FE000000000000003C181818181818183C000000000000007CC6C6C6C6C6C6C67C00000000000000C6C6C6C6C6C6C6C67C0000000014
:406A8000000000C6E6F6FEDECEC6C6C60000000000001818001818183C3C3C1800000000000030300030303060C6C67C000000001C30000000000000000000000000000050
:406AC00070180000000000000000000000000000386C0000000000000000000000000000C6C6000000000000000000000000000076DC00000000000000000000000000008C
:406B0000000000000000000000000000183000000000000000000000000000000000000000000010107CD0D0D0D0D67C1010000000001C30303078303030325C000000007D
:406B400000000000423C24243C420000000000000000663C187E18187E181818000000000000181818180000181818180000000000003C6460384444380C4C78000000001B
:406B800000C6C600000000000000000000000000000000007E425A5E5A427E0000000000000070087888887400000000000000000000000000366CD86C3600000000000027
:406BC00000000000000000FC0404000000000000000000000000007C0000000000000000000000007C4454444C547C0000000000FE000000000000000000000000000000A3
:406C00000070D888D870000000000000000000000000000010107C1010007C0000000000788C0C183060FC000000000000000000788C0C780C8C78000000000000000000B8
:406C4000000E182000000000000000000000000000000000006666666666667C6060C00000007ED4D4D474141414143E0000000000000000000038383800000000000000CA
:406C800060E060606060F000000000000000000000003C6666663C0000000000000000000000000000D86C366CD8000000000000000040C0444810244C941E0400000000FA
:406CC000000040C04448102C5284081E000000000000C0204428D0244C941E04000000000000000000663C183C66000000000000000000001818007E001818000000000054
:406D000000000000000818387FFF7F3818080000000000000010181CFEFFFE1C1810000000000000000010387CFE38383838000000000000000038383838FE7C38100000DF
:406D40000000000606060616367EFE7C30100000000000000000030306060CCC78380000792700001927000053454747455220656D57696E2056353436303700D5140000BB
:406D8000D9140000DD140000E114000021150000F9140000491500000100000051150000AD150000C7180000E3180000CB180000EB180000CF180000F3180000D318000099
:406DC000FB180000D718000011160000DB18000015160000C31800001D16000003190000211600000000000093160000631600007316000085160000371600002916000019
:406E00003F160000AD1800006D170000E9170000431800004F180000004080C02060A0E0192D0000512D0000E5260000000000010101010202020203030303040404040576
:406E4000050505060606060707070708080808090909090A0A0A0A0B0B0B0B0C0C0C0C0D0D0D0D0E0E0E0E0F0F0F0F101010101111111112121212131313131414141415E2
:406E800015151515161616161717171718181818191919191A1A1A1A1B1B1B1B1C1C1C1C1D1D1D1D1E1E1E1E1F1F1F1F2020202021212121222222222323232324242424B2
:406EC00025252525262626262727272728282828292929292A2A2A2A2A2B2B2B2B2C2C2C2C2D2D2D2D2E2E2E2E2F2F2F2F303030303131313132323232333333333434347C
:406F00003435353535363636363737373738383838393939393A3A3A3A3B3B3B3B3C3C3C3C3D3D3D3D3E3E3E3E3F3F3F00000000000101010101010101020202020202024E
:406F400002030303030303030304040404040404040505050505050505050606060606060606070707070707070708080808080808080909090909090909090A0A0A0A0A7F
:406F80000A0A0A0B0B0B0B0B0B0B0B0C0C0C0C0C0C0C0C0D0D0D0D0D0D0D0D0D0E0E0E0E0E0E0E0E0F0F0F0F0F0F0F0F10101010101010101111111111111111121212124E
:406FC00012121212121313131313131313141414141414141415151515151515151616161616161616161717171717171717181818181818181819191919191919191A1A1D
:407000001A1A1A1A1A1A1B1B1B1B1B1B1B1B1B1C1C1C1C1C1C1C1C1D1D1D1D1D1D1D1D1E1E1E1E1E1E1E1E1F1F1F1F1F000000000000000000010101010101010101010163
:40704000010101010101020202020202020202020202020202020203030303030303030303030303030303030404040404040404040404040404040404050505050505054E
:40708000050505050505050505050606060606060606060606060606060606070707070707070707070707070707070708080808080808080808080808080808080909091E
:4070C00009090909090909090909090909090A0A0A0A0A0A0A0A0A0A0A0A0A0A0A0A0A0B0B0B0B0B0B0B0B0B0B0B0B0B0B0B0B0B0C0C0C0C0C0C0C0C0C0C0C0C0C0C0C0CED
:407100000C0D0D0D0D0D0D0D0D0D0D0D0D0D0D0D0D0D0E0E0E0E0E0E0E0E0E0E0E0E0E0E0E0E0E0F0F0F0F0F0F0F0F0F0004080C1014181C2024282D3135393D4145494DF0
:407140005155595D6165696D7175797D82868A8E92969A9EA2A6AAAEB2B6BABEC2C6CACED2D7DBDFE3E7EBEFF3F7FBFF000810192129313A424A525B636B737B848C949C15
:40718000A5ADB5BDC5CED6DEE6EFF7FF00112233445566778899AABBCCDDEEFF794300005B43000009430000000000000000000000000000040000001147000001470000B7
:4071C000914500004D460000DD44000045450000ED4400005944000049440000314E000039440000654400000000000001000000020000000300000004000000050000006C
:40720000060000000700000008000000090000000A0000000B0000000C0000000D0000000E0000000F000000008040C020A060E0109050D030B070F0088848C828A868E8A5
